:100000000C945E000C9486000C9486000C94860080
:100010000C9486000C9486000C9486000C94860048
:100020000C9486000C9486000C9486000C94860038
:100030000C9486000C9486000C9486000C94860028
:100040000C9408030C9486000C94DD050C940F06A8
:100050000C9486000C9486000C9486000C94860008
:100060000C9486000C948600000000080002010039
:100070000003040700000000000000000102040863
:100080001020408001020408102001020408102002
:10009000040404040404040402020202020203032E
:1000A0000303030300000000250028002B000000CC
:1000B0000000240027002A0044013F0611241FBE2F
:1000C000CFEFD8E0DEBFCDBF11E0A0E0B1E0E2EAC3
:1000D000F5E102C005900D92A235B107D9F722E0F3
:1000E000A2E5B1E001C01D92AC31B207E1F710E02A
:1000F000CCEBD0E004C02297FE010E94CB0AC83BA3
:10010000D107C9F70E9483060C94CF0A0C94000013
:1001100026E040E855E260E070E08FE791E00E9461
:100120007B0520E042E060E18EE591E00C94210245
:100130008EE591E00E94000280915201909153015E
:1001400086509F4F909353018093520142E061E0AB
:100150008EE591E00E94070261E071E08EE591E09A
:100160000E94D0066091520170915301882777FD5B
:100170008095982F0E948C0920E030E04AE754E4F3
:100180000E94F108AB01BC0122E030E08EE591E075
:100190000E94730867E071E08EE591E00E94D0064E
:1001A0008EE00E94E30390935D0180935C01BC01AB
:1001B000882777FD8095982F0E948C0920E030ECED
:1001C0004FE754E40E94F10820E030E44CE955E4A4
:1001D0000E94400A609358017093590180935A011C
:1001E00090935B0169E071E08FE791E00E94D00697
:1001F00060915C0170915D014AE050E08FE791E011
:100200000E94800765E171E08FE791E00E94D006CF
:10021000409158015091590160915A0170915B01D0
:1002200023E030E08FE791E00E9473086CE171E019
:100230008FE791E00E94D006409154015091550102
:10024000609156017091570123E030E08FE791E013
:100250000E947508409154015091550160915601DA
:100260007091570123E030E08EE591E00E94730821
:1002700065E271E08EE591E00E94D00664EC79E0E1
:1002800080E090E00C947503CF92EF920F9382E0A0
:10029000C82E93E0E92E04E025E04BE06CE08EE50B
:1002A00091E00E94DC020F91EF90CF900895CF93E0
:1002B000DF93EC0160E08E810E94620481E090E0B7
:1002C0000E949D0361E08E810E94620481E090E0C3
:1002D0000E949D0360E08E810E94620484E690E0AB
:1002E000DF91CF910C949D03CF92DF92EF92FF921A
:1002F0000F931F93CF93DF937C01C0E0D0E0C62E15
:10030000D12C87010C0F1D1F61E0F80187810E942D
:100310002904B6010C2E02C0759567950A94E2F780
:100320006170F80187810E9462042196C430D10572
:1003300041F7C701DF91CF911F910F91FF90EF908F
:10034000DF90CF900C945701CF92DF92EF92FF9203
:100350000F931F93CF93DF937C01C0E0D0E0C62EB4
:10036000D12C87010C0F1D1F61E0F80187810E94CD
:100370002904B6010C2E02C0759567950A94E2F720
:100380006170F80187810E9462042196C830D1050E
:1003900041F7C701DF91CF911F910F91FF90EF902F
:1003A000DF90CF900C9457011F93CF93DF93EC0114
:1003B000162F642F8C810E9462048D818F3F19F06B
:1003C00060E00E9462048F85612F84FF06C0CE0129
:1003D000DF91CF911F910C94A40170E084E075959A
:1003E00067958A95E1F7CE010E947401612FCE01D5
:1003F000DF91CF911F910C94740140E00C94D401D3
:1004000061E00E94FD0180ED97E00C949D03443073
:1004100008F043E0FC012389421710F04FEF420F30
:10042000FC01E40FF11D2489260F2068622F0C9433
:10043000FD01FC016089262F2460208B6C600C94E8
:10044000FD01CF93DF93EC01423018F08F85886077
:100450008F874B8B1C8A80E48D8B6E8B70E0605C89
:100460007F4F6F8B222329F0413019F48F858460F0
:100470008F8780E593EC0E949D0360E08C810E9451
:10048000620460E08E810E9462048D818F3F19F0CA
:1004900060E00E9462046F8564FD1DC063E0CE01D0
:1004A0000E94740184E991E10E949D0363E0CE0102
:1004B0000E94740184E991E10E949D0363E0CE01F2
:1004C0000E94740186E990E00E949D0362E0CE01E3
:1004D0000E94740116C06062CE010E94FD0184E991
:1004E00091E10E949D036F856062CE010E94FD0133
:1004F00086E990E00E949D036F856062CE010E94B4
:10050000FD016F856062CE010E94FD0184E0888B51
:10051000CE010E941902CE010E94000282E0898B66
:1005200066E0CE01DF91CF910C94FD016F927F9236
:100530008F92AF92CF92EF920F931F93CF93DF934F
:10054000CDB7DEB73C01162F842F5D854E853F85E4
:100550009889F301848325830683E782C086A18678
:100560008286538744873587968761E00E942904F5
:10057000F30185818F3F19F061E00E94290461E059
:10058000F30186810E942904112319F0F3011786D3
:1005900003C080E1F301878720E041E060E1C3010F
:1005A000DF91CF911F910F91EF90CF90AF908F90EF
:1005B0007F906F900C9421028F92AF92CF92EF9226
:1005C0000F93DC0113961C921E921297ECE2F1E05D
:1005D000ED93FC931F921F921F921F928C2CAE2CB6
:1005E000C02EE22E042F2FEF462F61E00E949602CC
:1005F0000F900F900F900F900F91EF90CF90AF90C2
:100600008F90089541E00E94D40181E090E0089528
:100610001F920F920FB60F9211242F933F938F9337
:100620009F93AF93BF938091770190917801A091B0
:100630007901B0917A013091760123E0230F2D37B3
:1006400020F40196A11DB11D05C026E8230F0296D6
:10065000A11DB11D209376018093770190937801BD
:10066000A0937901B0937A0180917B0190917C01F4
:10067000A0917D01B0917E010196A11DB11D8093D5
:100680007B0190937C01A0937D01B0937E01BF918B
:10069000AF919F918F913F912F910F900FBE0F902F
:1006A0001F9018953FB7F89480917B0190917C0141
:1006B000A0917D01B0917E0126B5A89B05C02F3F7A
:1006C00019F00196A11DB11D3FBF6627782F892F14
:1006D0009A2F620F711D811D911D42E0660F771FD9
:1006E000881F991F4A95D1F70895CF92DF92EF9214
:1006F000FF92CF93DF936B017C010E945203EB01C9
:10070000C114D104E104F10489F00E9487080E9419
:1007100052036C1B7D0B683E734090F381E0C81A56
:10072000D108E108F108C851DC4FEACFDF91CF9141
:10073000FF90EF90DF90CF9008958230910538F0D0
:10074000880F991F880F991F05970197F1F7089552
:10075000789484B5826084BD84B5816084BD85B59C
:10076000826085BD85B5816085BDEEE6F0E0808163
:1007700081608083E1E8F0E0108280818260808384
:10078000808181608083E0E8F0E080818160808307
:10079000E1EBF0E0808184608083E0EBF0E0808139
:1007A00081608083EAE7F0E08081846080838081DB
:1007B0008260808380818160808380818068808383
:1007C0001092C10008958E3008F08E5087702091ED
:1007D000000190E4299F90011124822B80937C00DA
:1007E00080917A00806480937A0080917A0086FDFF
:1007F000FCCF809178002091790090E0922B0895B1
:10080000833081F028F4813099F08230A1F008958E
:100810008730A9F08830B9F08430D1F4809180001D
:100820008F7D03C0809180008F7780938000089532
:1008300084B58F7702C084B58F7D84BD0895809183
:10084000B0008F7703C08091B0008F7D8093B0009F
:100850000895CF93DF9390E0FC01E458FF4F24917B
:10086000FC01E057FF4F8491882349F190E0880F05
:10087000991FFC01E255FF4FA591B4918C559F4FF4
:10088000FC01C591D4919FB7611108C0F8948C9177
:10089000209582238C93888182230AC0623051F490
:1008A000F8948C91322F309583238C938881822BFE
:1008B000888304C0F8948C91822B8C939FBFDF9126
:1008C000CF9108950F931F93CF93DF931F92CDB7CE
:1008D000DEB7282F30E0F901E859FF4F8491F90184
:1008E000E458FF4F1491F901E057FF4F04910023A2
:1008F000C9F0882321F069830E9400046981E02FF8
:10090000F0E0EE0FFF1FEC55FF4FA591B4919FB79C
:10091000F8948C91611103C01095812301C0812B43
:100920008C939FBF0F90DF91CF911F910F910895EE
:10093000FC01818D228D90E0805C9F4F821B91098C
:100940008F7399270895FC01918D828D981731F04E
:10095000828DE80FF11D858D90E008958FEF9FEF58
:100960000895FC01918D828D981761F0828DDF01D1
:10097000A80FB11D5D968C91928D9F5F9F73928F92
:1009800090E008958FEF9FEF089585E396E0892B1F
:1009900049F080E090E0892B29F00E943506811112
:1009A0000C9400000895FC01848DDF01A80FB11D97
:1009B000A35ABF4F2C91848D90E001968F73992795
:1009C000848FA689B7892C93A089B1898C91806482
:1009D0008C93938D848D981306C00288F389E02D43
:1009E00080818F7D80830895CF93DF93EC01888D84
:1009F0008823C9F0EA89FB89808185FD05C0A88923
:100A0000B9898C9186FD0FC00FB607FCF5CF8081A8
:100A100085FFF2CFA889B9898C9185FFEDCFCE01F2
:100A20000E94D304E7CFDF91CF910895CF92DF9258
:100A3000FF920F931F93CF93DF931F92CDB7DEB733
:100A40006C0181E0D60158968C9358975B969C91E7
:100A50005B975C968C915C97981307C05096ED91CC
:100A6000FC915197808185FD2EC0F601038D10E029
:100A70000F5F1F4F0F731127F02EF601848DF812B0
:100A800011C00FB607FCF9CFD6015096ED91FC913D
:100A90005197808185FFF1CFC60169830E94D304FD
:100AA0006981EBCF838DE80FF11DE35AFF4F60831F
:100AB000D6015B960C935B975296ED91FC91539700
:100AC000808180620CC0D6015696ED91FC915797BB
:100AD00060835096ED91FC91519780818064808372
:100AE00081E090E00F90DF91CF911F910F91FF90E7
:100AF000DF90CF900895BF92CF92DF92EF92FF9256
:100B0000CF93DF93EC016A017B01B22EE889F9896A
:100B100082E08083411581EE580761057105A1F0DF
:100B200060E079E08DE390E0A70196010E94A70ABA
:100B30002150310941095109569547953795279517
:100B4000211580E1380798F0E889F989108260E87A
:100B500074E88EE190E0A70196010E94A70A215057
:100B60003109410951095695479537952795EC85E7
:100B7000FD853083EE85FF852083188EEC89FD8905
:100B8000B082EA89FB89808180618083EA89FB8960
:100B9000808188608083EA89FB8980818068808386
:100BA000EA89FB8980818F7D8083DF91CF91FF90DF
:100BB000EF90DF90CF90BF9008951F920F920FB6E5
:100BC0000F9211242F938F939F93EF93FF93E091B4
:100BD0008F01F09190018081E0919501F091960153
:100BE00082FD12C09081809198018F5F8F73209158
:100BF0009901821751F0E0919801F0E0E158FE4F21
:100C0000958F8093980101C08081FF91EF919F9112
:100C10008F912F910F900FBE0F901F9018951F92DC
:100C20000F920FB60F9211242F933F934F935F9320
:100C30006F937F938F939F93AF93BF93EF93FF93A4
:100C40008FE791E00E94D304FF91EF91BF91AF91A4
:100C50009F918F917F916F915F914F913F912F91D4
:100C60000F900FBE0F901F9018958FE791E00E9494
:100C7000980421E0892B09F420E0822F0895109236
:100C800082011092810188EE93E0A0E0B0E08093B1
:100C9000830190938401A0938501B093860184E33E
:100CA00091E09093800180937F0185EC90E0909398
:100CB0008C0180938B0184EC90E090938E01809363
:100CC0008D0180EC90E09093900180938F0181ECF6
:100CD00090E0909392018093910182EC90E0909348
:100CE00094018093930186EC90E090939601809319
:100CF0009501109298011092990110929A01109208
:100D00009B01089508950E94A8030E9482060E94F4
:100D10008800C5ECD4E00E9498002097E1F30E947F
:100D2000C504F9CFCF92DF92EF92FF920F931F93FA
:100D3000CF93DF936C017A01EB01E60EF71E00E022
:100D400010E0CE15DF0561F06991D601ED91FC91BF
:100D50000190F081E02DC6010995080F191FF1CF10
:100D6000C801DF91CF911F910F91FF90EF90DF901D
:100D7000CF9008956115710581F0DB010D90002081
:100D8000E9F7AD0141505109461B570BDC01ED91CC
:100D9000FC910280F381E02D099480E090E00895B9
:100DA0000C94BA06DC01ED91FC910190F081E02DEC
:100DB000099460E471E00C94BA068F929F92AF920E
:100DC000BF92CF92DF92EF92FF920F931F93CF9338
:100DD000DF93CDB7DEB7A1970FB6F894DEBF0FBE95
:100DE000CDBF7C01C42EE52FCB01D22E19A221E06C
:100DF0002D1510F02AE0D22E8E010F5D1F4F8D2C85
:100E0000912CA12CB12C6C2D7E2FA50194010E9458
:100E1000A70A8C2DD29E80191124015011098A3005
:100E200014F4805D01C0895CF801808321153105CF
:100E30004105510521F0C22EE32FCA01E4CFB801CC
:100E4000C7010E94BA06A1960FB6F894DEBF0FBE86
:100E5000CDBFDF91CF911F910F91FF90EF90DF9069
:100E6000CF90BF90AF909F908F900895CF92DF92D8
:100E7000EF92FF920F931F93CF93DF93EC016A01E0
:100E80007B012115310579F4E881F9810190F08128
:100E9000E02D642FDF91CF911F910F91FF90EF9084
:100EA000DF90CF9009942A303105E9F477FF1AC01A
:100EB0006DE20E94D2068C0144275527BA014C19D5
:100EC0005D096E097F092AE0CE010E94DD06800FD0
:100ED000911FDF91CF911F910F91FF90EF90DF90C5
:100EE000CF9008952AE0B701A601CE01DF91CF91FE
:100EF0001F910F91FF90EF90DF90CF900C94DD0643
:100F00009A01AB01662757FD6095762F0C94360742
:100F10004F925F926F927F928F929F92AF92BF9209
:100F2000CF92DF92EF92FF920F931F93CF93DF93B5
:100F3000EC016A017B01B22E9A01AB01C701B60137
:100F40000E94A30A882319F063E471E027C02601F8
:100F50003701E89477F82FEF3FEF4FE75FE7C301E2
:100F6000B2010E94A30A81110DC02FEF3FEF4FE79E
:100F70005FE7C301B2010E94ED0818161CF467E494
:100F800071E00CC02FEF3FEF4FE75FE4C701B60100
:100F90000E943C0A1816ACF46BE471E0CE01DF91BC
:100FA000CF911F910F91FF90EF90DF90CF90BF9066
:100FB000AF909F908F907F906F905F904F900C9428
:100FC000BA062FEF3FEF4FE75FECC701B6010E9473
:100FD000ED0887FDE1CF20E030E0A901C701B601AF
:100FE0000E94ED0887FF0AC06DE2CE010E94D20682
:100FF0008C01F7FAF094F7F8F09402C000E010E0EA
:10100000A12C60E070E080E09FE3AB1441F020E0B1
:1010100030E040E251E40E94F108A394F6CF9B0136
:10102000AC01C701B6010E9489086B017C010E94D6
:101030005E092B013C010E948A099B01AC01C7019A
:10104000B6010E9488086B017C012AE0B301A2016D
:10105000CE010E94DD06080F191FBB2039F06FE496
:1010600071E0CE010E94BA06080F191F7B2C772071
:1010700041F120E030E040E251E4C701B6010E94B6
:10108000400A6B017C010E9459094B01AA2497FC7C
:10109000A094BA2C2AE030E0B501A401CE010E9450
:1010A0003607080F191FC501B4010E948C099B0166
:1010B000AC01C701B6010E9488086B017C017A94DB
:1010C000D6CFC801DF91CF911F910F91FF90EF9084
:1010D000DF90CF90BF90AF909F908F907F906F9058
:1010E0005F904F9008950C9488070F931F93CF93B0
:1010F000DF93EC010E9488078C01CE010E94D90683
:10110000800F911FDF91CF911F910F910895089546
:101110005058BB27AA270ED075C166D130F06BD1CD
:1011200020F031F49F3F11F41EF45BC10EF4E09502
:10113000E7FB51C1E92F77D180F3BA176207730734
:101140008407950718F071F49EF58FC10EF4E095B1
:101150000B2EBA2FA02D0B01B90190010C01CA0171
:10116000A0011124FF27591B99F0593F50F4503E1C
:1011700068F11A16F040A22F232F342F4427585F0E
:10118000F3CF469537952795A795F0405395C9F726
:101190007EF41F16BA0B620B730B840BBAF09150DE
:1011A000A1F0FF0FBB1F661F771F881FC2F70EC07D
:1011B000BA0F621F731F841F48F487957795679550
:1011C000B795F7959E3F08F0B3CF9395880F08F039
:1011D0009927EE0F979587950895D9D008F481E067
:1011E00008950CD00FC107D140F0FED030F021F4AB
:1011F0005F3F19F0F0C0511139C1F3C014D198F319
:101200009923C9F35523B1F3951B550BBB27AA2787
:1012100062177307840738F09F5F5F4F220F331FF9
:10122000441FAA1FA9F333D00E2E3AF0E0E830D0C5
:1012300091505040E695001CCAF729D0FE2F27D0C8
:10124000660F771F881FBB1F261737074807AB0796
:10125000B0E809F0BB0B802DBF01FF2793585F4F0B
:101260002AF09E3F510568F0B6C000C15F3FECF325
:10127000983EDCF3869577956795B795F7959F5FD0
:10128000C9F7880F911D9695879597F90895E1E024
:10129000660F771F881FBB1F621773078407BA0783
:1012A00020F0621B730B840BBA0BEE1F88F7E095DE
:1012B000089504D06894B111D9C00895BCD088F0C5
:1012C0009F5790F0B92F9927B751A0F0D1F0660F32
:1012D000771F881F991F1AF0BA95C9F712C0B1304D
:1012E00081F0C3D0B1E00895C0C0672F782F882760
:1012F000B85F39F0B93FCCF3869577956795B3958C
:10130000D9F73EF490958095709561957F4F8F4FFA
:101310009F4F0895E89409C097FB3EF490958095FF
:10132000709561957F4F8F4F9F4F9923A9F0F92FAB
:1013300096E9BB279395F695879577956795B79529
:10134000F111F8CFFAF4BB0F11F460FF1BC06F5F0F
:101350007F4F8F4F9F4F16C0882311F096E911C021
:10136000772321F09EE8872F762F05C0662371F042
:1013700096E8862F70E060E02AF09A95660F771F56
:10138000881FDAF7880F9695879597F90895990F32
:101390000008550FAA0BE0E8FEEF16161706E8073F
:1013A000F907C0F012161306E407F50798F0621B60
:1013B000730B840B950B39F40A2661F0232B242B35
:1013C000252B21F408950A2609F4A140A6958FEF54
:1013D000811D811D089597F99F6780E870E060E0A6
:1013E00008959FEF80EC089500240A9416161706BE
:1013F00018060906089500240A9412161306140606
:1014000005060895092E0394000C11F4882352F068
:10141000BB0F40F4BF2B11F460FF04C06F5F7F4F20
:101420008F4F9F4F089557FD9058440F551F59F007
:101430005F3F71F04795880F97FB991F61F09F3FC1
:1014400079F087950895121613061406551FF2CFEA
:101450004695F1DF08C0161617061806991FF1CF3A
:1014600086957105610508940895E894BB27662761
:101470007727CB0197F908958ADF08F48FEF089555
:101480000BD0C0CFB1DF28F0B6DF18F0952309F0FC
:10149000A2CFA7CF1124EACFC6DFA0F3959FD1F347
:1014A000950F50E0551F629FF001729FBB27F00D12
:1014B000B11D639FAA27F00DB11DAA1F649F662767
:1014C000B00DA11D661F829F2227B00DA11D621FB6
:1014D000739FB00DA11D621F839FA00D611D221F70
:1014E000749F3327A00D611D231F849F600D211D54
:1014F000822F762F6A2F11249F5750408AF0E1F0F7
:1015000088234AF0EE0FFF1FBB1F661F771F881F3F
:1015100091505040A9F79E3F510570F05CCFA6CF87
:101520005F3FECF3983EDCF3869577956795B7952A
:10153000F795E7959F5FC1F7FE2B880F911D969554
:10154000879597F9089523DF880B990B0895A1E2F9
:101550001A2EAA1BBB1BFD010DC0AA1FBB1FEE1F2D
:10156000FF1FA217B307E407F50720F0A21BB30B78
:10157000E40BF50B661F771F881F991F1A9469F7F4
:1015800060957095809590959B01AC01BD01CF0150
:101590000895EE0FFF1F0590F491E02D0994F89443
:0215A000FFCF7B
:1015A2000154696D65200073005261772056616CA9
:1015B20075653D2000206D56203D200020416D7054
:1015C20073203D200020410000000000020392062B
:1015D20000000000160592069804B104A304F40466
:1015E2000D0A006E616E00696E66006F7666002EEF
:0215F2000000F7
:00000001FF
