:100000000C945E000C9486000C9486000C94860080
:100010000C9486000C9486000C9486000C94860048
:100020000C9486000C9486000C9486000C94860038
:100030000C9486000C9486000C9486000C94860028
:100040000C9463050C9486000C9444080C94760878
:100050000C9486000C9486000C9486000C94860008
:100060000C9486000C948600000000080002010039
:100070000003040700000000000000000102040863
:100080001020408001020408102001020408102002
:10009000040404040404040402020202020203032E
:1000A0000303030300000000250028002B000000CC
:1000B0000000240027002A009F03A60811241FBE69
:1000C000CFEFD8E0DEBFCDBF11E0A0E0B1E0E2E3CA
:1000D000FBE102C005900D92A836B107D9F722E0E6
:1000E000A8E6B1E001C01D92A235B207E1F710E029
:1000F000CCEBD0E004C02297FE010E94930DC83BD8
:10010000D107C9F70E94EA080C94970D0C940000DF
:1001100026E040E855E260E070E085EB91E00E9467
:10012000E20720E042E060E184E991E00E947C0483
:1001300010927C0110927D0110927E0110927F013D
:10014000109278011092790110927A0110927B013D
:10015000109274011092750110927601109277013D
:10016000109270011092710110927201109273013D
:10017000089584E991E00E945B0467E071E085EBFB
:1001800091E00E9437094091800150918101609176
:1001900082017091830122E030E085EB91E00E94C2
:1001A000F60A409180015091810160918201709125
:1001B000830122E030E084E991E00E94F60A6EE0DB
:1001C00071E085EB91E00E94370968E171E084E914
:1001D00091E00E9437094091880150918901609116
:1001E0008A0170918B0122E030E085EB91E00E9462
:1001F000F60A409188015091890160918A017091BD
:100200008B0122E030E084E991E00E94F60A6DE182
:1002100071E085EB91E00E9444096DE171E084E9B1
:1002200091E00E94370942E061E084E991E00E9498
:1002300062046FE171E085EB91E00E943709409123
:100240007C0150917D0160917E0170917F0122E0DF
:1002500030E085EB91E00E94F60A40917C015091DC
:100260007D0160917E0170917F0122E030E084E9A0
:1002700091E00E94F60A67E271E085EB91E00E944E
:1002800037096EE271E084E991E00E94370964E386
:1002900071E085EB91E00E94370940918401509113
:1002A0008501609186017091870122E030E085EB45
:1002B00091E00E94F60A409184015091850160917D
:1002C00086017091870122E030E084E991E00E948C
:1002D000F60A6DE371E085EB91E00E9444096DE35D
:1002E00071E084E991E00C944409CF92DF92EF929F
:1002F000FF9226EF38E24CE950E40E94B10C20E076
:1003000030E04AE754E40E94620B20E030E040E233
:1003100050E40E94F90A9B01AC010E94B10C0E94BA
:10032000180D20E030E04AE754E40E94B10C20E0D0
:1003300030E044E852E40E94620B6B017C019B01B7
:10034000AC0160917401709175018091760190917A
:1003500077010E94FA0A609374017093750180938B
:10036000760190937701C701B601FF90EF90DF907F
:10037000CF900895CF92DF92EF92FF922091840167
:1003800030918501409186015091870160918801EB
:100390007091890180918A0190918B010E94B10C2A
:1003A0006B017C019B01AC01609170017091710146
:1003B00080917201909173010E94FA0A609370011A
:1003C000709371018093720190937301C701B6011C
:1003D000FF90EF90DF90CF90089560918C01709125
:1003E0008D0180918E0190918F010E94FD0B2091D3
:1003F00070013091710140917201509173010E941E
:10040000B10C20E030E041E655E40E94620B089513
:10041000CF92DF92EF92FF9260918C0170918D01EB
:1004200080918E0190918F010E94FD0B6B017C01E8
:100430009B01AC016091740170917501809176010E
:10044000909177010E94620BA70196010E94B10C66
:1004500020E030E041E655E40E94620BFF90EF900F
:10046000DF90CF9008958F929F92AF92BF92CF92DC
:10047000DF92EF92FF92E12CF12C609100017091DC
:100480000101E616F7060CF04CC08EE00E944A0609
:10049000BC01882777FD8095982F0E94FD0B9B015A
:1004A000AC01609168017091690180916A0190913D
:1004B0006B010E94FA0A609368017093690180934E
:1004C0006A0190936B0161E070E080E090E00E942F
:1004D000DC0580E10E944A06BC01882777FD8095F3
:1004E000982F0E94FD0B9B01AC0160916C017091F3
:1004F0006D0180916E0190916F010E94FA0A6093E4
:100500006C0170936D0180936E0190936F0161E0B7
:1005100070E080E090E00E94DC058FEFE81AF80AB6
:10052000ACCF882777FD8095982F0E94FD0B4B015B
:100530005C019B01AC01609168017091690180913F
:100540006A0190916B010E94620B6B017C016093C8
:1005500068017093690180936A0190936B01A50112
:10056000940160916C0170916D0180916E01909188
:100570006F010E94620B60936C0170936D01809318
:100580006E0190936F01C701B6010E9475016093DF
:10059000840170938501809386019093870129E9F6
:1005A00039E948E152E460916C0170916D018091EC
:1005B0006E0190916F010E94B10C20E030E04AE79B
:1005C00054E40E94620B60938801709389018093C8
:1005D0008A0190938B010E94BA016093800170930D
:1005E000810180938201909383010E94ED016093C9
:1005F0007C0170937D0180937E0190937F010E9426
:100600000802609378017093790180937A01909346
:100610007B01FF90EF90DF90CF90BF90AF909F90C5
:100620008F9008958F929F92AF92BF92CF92DF9258
:10063000EF92FF920E94AD052091020130910301DB
:100640004091040150910501C0909001D09091011A
:10065000E0909201F09093014B015C018C189D0891
:10066000AE08BF08281539054A055B0540F46093BC
:100670009001709391018093920190939301609106
:1006800090017091910180919201909193010E944B
:100690006F0DBA01A90140938C0150938D016093B5
:1006A0008E0170938F012AE030E085EB91E00E948B
:1006B000F90964E670E080E090E00E94DC050E94A9
:1006C000330264EF71E080E090E00E94DC050E945C
:1006D000B900109288011092890110928A0110923B
:1006E0008B01109284011092850110928601109264
:1006F0008701109280011092810110928201109264
:10070000830110926C0110926D0110926E01109293
:100710006F01109268011092690110926A011092A3
:100720006B016CED75E080E090E0FF90EF90DF9062
:10073000CF90BF90AF909F908F900C94DC05CF929C
:10074000EF920F9382E0C82E93E0E92E04E025E0BB
:100750004BE06CE084E991E00E9437050F91EF9047
:10076000CF900895CF93DF93EC0160E08E810E94DB
:10077000C90681E090E00E94040661E08E810E943B
:10078000C90681E090E00E94040660E08E810E942C
:10079000C90684E690E0DF91CF910C940406CF92D5
:1007A000DF92EF92FF920F931F93CF93DF937C0121
:1007B000C0E0D0E0C62ED12C87010C0F1D1F61E0D8
:1007C000F80187810E949006B6010C2E02C0759533
:1007D00067950A94E2F76170F80187810E94C90663
:1007E0002196C430D10541F7C701DF91CF911F9108
:1007F0000F91FF90EF90DF90CF900C94B203CF92C7
:10080000DF92EF92FF920F931F93CF93DF937C01C0
:10081000C0E0D0E0C62ED12C87010C0F1D1F61E077
:10082000F80187810E949006B6010C2E02C07595D2
:1008300067950A94E2F76170F80187810E94C90602
:100840002196C830D10541F7C701DF91CF911F91A3
:100850000F91FF90EF90DF90CF900C94B2031F9315
:10086000CF93DF93EC01162F642F8C810E94C90671
:100870008D818F3F19F060E00E94C9068F85612F3E
:1008800084FF06C0CE01DF91CF911F910C94FF032E
:1008900070E084E0759567958A95E1F7CE010E9436
:1008A000CF03612FCE01DF91CF911F910C94CF0325
:1008B00040E00C942F0461E00E94580480ED97E022
:1008C0000C940406443008F043E0FC0123894217ED
:1008D00010F04FEF420FFC01E40FF11D2489260FA9
:1008E0002068622F0C945804FC016089262F246034
:1008F000208B6C600C945804CF93DF93EC01423052
:1009000018F08F8588608F874B8B1C8A80E48D8BD5
:100910006E8B70E0605C7F4F6F8B222329F041303B
:1009200019F48F8584608F8780E593EC0E9404061C
:1009300060E08C810E94C90660E08E810E94C90639
:100940008D818F3F19F060E00E94C9066F8564FDBC
:100950001DC063E0CE010E94CF0384E991E10E94B3
:10096000040663E0CE010E94CF0384E991E10E9476
:10097000040663E0CE010E94CF0386E990E00E9466
:10098000040662E0CE010E94CF0316C06062CE0171
:100990000E94580484E991E10E9404066F85606218
:1009A000CE010E94580486E990E00E9404066F85FB
:1009B0006062CE010E9458046F856062CE010E9481
:1009C000580484E0888BCE010E947404CE010E94FA
:1009D0005B0482E0898B66E0CE01DF91CF910C94BD
:1009E00058046F927F928F92AF92CF92EF920F93B3
:1009F0001F93CF93DF93CDB7DEB73C01162F842F23
:100A00005D854E853F859889F30184832583068320
:100A1000E782C086A186828653874487358796877A
:100A200061E00E949006F30185818F3F19F061E03B
:100A30000E94900661E0F30186810E9490061123D6
:100A400019F0F301178603C080E1F301878720E0E6
:100A500041E060E1C301DF91CF911F910F91EF90D1
:100A6000CF90AF908F907F906F900C947C048F927A
:100A7000AF92CF92EF920F93DC0113961C921E92CD
:100A80001297E3E4F1E0ED93FC931F921F921F9203
:100A90001F928C2CAE2CC02EE22E042F2FEF462F4F
:100AA00061E00E94F1040F900F900F900F900F9152
:100AB000EF90CF90AF908F90089541E00E942F0467
:100AC00081E090E008951F920F920FB60F921124CB
:100AD0002F933F938F939F93AF93BF938091AD01DB
:100AE0009091AE01A091AF01B091B0013091AC01F5
:100AF00023E0230F2D3720F40196A11DB11D05C061
:100B000026E8230F0296A11DB11D2093AC0180930E
:100B1000AD019093AE01A093AF01B093B00180916D
:100B2000B1019091B201A091B301B091B4010196CD
:100B3000A11DB11D8093B1019093B201A093B301A7
:100B4000B093B401BF91AF919F918F913F912F913D
:100B50000F900FBE0F901F9018952FB7F8946091CB
:100B6000AD017091AE018091AF019091B0012FBFA6
:100B700008953FB7F8948091B1019091B201A0918E
:100B8000B301B091B40126B5A89B05C02F3F19F061
:100B90000196A11DB11D3FBF6627782F892F9A2F7F
:100BA000620F711D811D911D42E0660F771F881F26
:100BB000991F4A95D1F70895CF92DF92EF92FF9255
:100BC000CF93DF936B017C010E94B905EB01C11447
:100BD000D104E104F10489F00E94F80A0E94B905E9
:100BE0006C1B7D0B683E734090F381E0C81AD108FE
:100BF000E108F108C851DC4FEACFDF91CF91FF90B7
:100C0000EF90DF90CF9008958230910538F0880FF3
:100C1000991F880F991F05970197F1F70895789408
:100C200084B5826084BD84B5816084BD85B58260F1
:100C300085BD85B5816085BDEEE6F0E0808181608F
:100C40008083E1E8F0E0108280818260808380818F
:100C500081608083E0E8F0E0808181608083E1EB67
:100C6000F0E0808184608083E0EBF0E0808181604F
:100C70008083EAE7F0E08081846080838081826005
:100C800080838081816080838081806880831092EE
:100C9000C10008958E3008F08E50877020910601B3
:100CA00090E4299F90011124822B80937C008091F5
:100CB0007A00806480937A0080917A0086FDFCCF70
:100CC000809178002091790090E0922B08958330F4
:100CD00081F028F4813099F08230A1F008958730B6
:100CE000A9F08830B9F08430D1F4809180008F7DF4
:100CF00003C0809180008F7780938000089584B531
:100D00008F7702C084B58F7D84BD08958091B00037
:100D10008F7703C08091B0008F7D8093B0000895DD
:100D2000CF93DF9390E0FC01E458FF4F2491FC0146
:100D3000E057FF4F8491882349F190E0880F991F75
:100D4000FC01E255FF4FA591B4918C559F4FFC01DA
:100D5000C591D4919FB7611108C0F8948C912095EA
:100D600082238C93888182230AC0623051F4F894E4
:100D70008C91322F309583238C938881822B8883AA
:100D800004C0F8948C91822B8C939FBFDF91CF91FC
:100D900008950F931F93CF93DF931F92CDB7DEB7C4
:100DA000282F30E0F901E859FF4F8491F901E45808
:100DB000FF4F1491F901E057FF4F04910023C9F050
:100DC000882321F069830E9467066981E02FF0E0A3
:100DD000EE0FFF1FEC55FF4FA591B4919FB7F8940C
:100DE0008C91611103C01095812301C0812B8C93DC
:100DF0009FBF0F90DF91CF911F910F910895FC013C
:100E0000818D228D90E0805C9F4F821B91098F73B2
:100E100099270895FC01918D828D981731F0828D6C
:100E2000E80FF11D858D90E008958FEF9FEF0895F5
:100E3000FC01918D828D981761F0828DDF01A80FE2
:100E4000B11D5D968C91928D9F5F9F73928F90E004
:100E500008958FEF9FEF08958CE998E0892B49F072
:100E600080E090E0892B29F00E949C0881110C946D
:100E700000000895FC01848DDF01A80FB11DA35A65
:100E8000BF4F2C91848D90E001968F739927848FAA
:100E9000A689B7892C93A089B1898C9180648C93A1
:100EA000938D848D981306C00288F389E02D80818C
:100EB0008F7D80830895CF93DF93EC01888D882305
:100EC000C9F0EA89FB89808185FD05C0A889B989B7
:100ED0008C9186FD0FC00FB607FCF5CF808185FF92
:100EE000F2CFA889B9898C9185FFEDCFCE010E9400
:100EF0003A07E7CFDF91CF910895CF92DF92FF922B
:100F00000F931F93CF93DF931F92CDB7DEB76C0182
:100F100081E0D60158968C9358975B969C915B978D
:100F20005C968C915C97981307C05096ED91FC915C
:100F30005197808185FD2EC0F601038D10E00F5F73
:100F40001F4F0F731127F02EF601848DF81211C078
:100F50000FB607FCF9CFD6015096ED91FC91519751
:100F6000808185FFF1CFC60169830E943A076981BC
:100F7000EBCF838DE80FF11DE35AFF4F6083D6015D
:100F80005B960C935B975296ED91FC915397808101
:100F900080620CC0D6015696ED91FC915797608304
:100FA0005096ED91FC91519780818064808381E01F
:100FB00090E00F90DF91CF911F910F91FF90DF9004
:100FC000CF900895BF92CF92DF92EF92FF92CF938E
:100FD000DF93EC016A017B01B22EE889F98982E096
:100FE0008083411581EE580761057105A1F060E02D
:100FF00079E08DE390E0A70196010E946F0D2150EA
:10100000310941095109569547953795279521157D
:1010100080E1380798F0E889F989108260E874E87F
:101020008EE190E0A70196010E946F0D21503109D9
:10103000410951095695479537952795EC85FD85CA
:101040003083EE85FF852083188EEC89FD89B08280
:10105000EA89FB89808180618083EA89FB898081BC
:1010600088608083EA89FB89808180688083EA893F
:10107000FB8980818F7D8083DF91CF91FF90EF90FE
:10108000DF90CF90BF9008951F920F920FB60F92EE
:1010900011242F938F939F93EF93FF93E091C501BA
:1010A000F091C6018081E091CB01F091CC0182FDED
:1010B00012C090818091CE018F5F8F732091CF01FC
:1010C000821751F0E091CE01F0E0EB54FE4F958F86
:1010D0008093CE0101C08081FF91EF919F918F910C
:1010E0002F910F900FBE0F901F9018951F920F9287
:1010F0000FB60F9211242F933F934F935F936F93EB
:101100007F938F939F93AF93BF93EF93FF9385EB61
:1011100091E00E943A07FF91EF91BF91AF919F91AB
:101120008F917F916F915F914F913F912F910F9090
:101130000FBE0F901F90189585EB91E00E94FF065F
:1011400021E0892B09F420E0822F08951092B80144
:101150001092B70188EE93E0A0E0B0E08093B9016F
:101160009093BA01A093BB01B093BC018BE491E0D2
:101170009093B6018093B50185EC90E09093C20105
:101180008093C10184EC90E09093C4018093C301EB
:1011900080EC90E09093C6018093C50181EC90E0D3
:1011A0009093C8018093C70182EC90E09093CA01AC
:1011B0008093C90186EC90E09093CC018093CB01A1
:1011C0001092CE011092CF011092D0011092D10155
:1011D000089508950E940F060E94E9080E94880061
:1011E000CCE2D7E00E9412032097E1F30E942C0783
:1011F000F9CFCF92DF92EF92FF920F931F93CF938D
:10120000DF936C017A01EB01E60EF71E00E010E0BF
:10121000CE15DF0561F06991D601ED91FC91019049
:10122000F081E02DC6010995080F191FF1CFC80103
:10123000DF91CF911F910F91FF90EF90DF90CF90B2
:1012400008956115710581F0DB010D900020E9F72B
:10125000AD0141505109461B570BDC01ED91FC914A
:101260000280F381E02D099480E090E008950C94D1
:101270002109DC01ED91FC910190F081E02D0994B0
:1012800067E571E00C9421090F931F93CF93DF93CF
:10129000EC010E9421098C01CE010E944009800FBF
:1012A000911FDF91CF911F910F9108958F929F927F
:1012B000AF92BF92CF92DF92EF92FF920F931F9364
:1012C000CF93DF93CDB7DEB7A1970FB6F894DEBF0B
:1012D0000FBECDBF7C01C42EE52FCB01D22E19A2AB
:1012E00021E02D1510F02AE0D22E8E010F5D1F4F48
:1012F0008D2C912CA12CB12C6C2D7E2FA50194014D
:101300000E946F0D8C2DD29E80191124015011095D
:101310008A3014F4805D01C0895CF8018083211556
:1013200031054105510521F0C22EE32FCA01E4CF5A
:10133000B801C7010E942109A1960FB6F894DEBF3B
:101340000FBECDBFDF91CF911F910F91FF90EF9016
:10135000DF90CF90BF90AF909F908F900895CF92E5
:10136000DF92EF92FF920F931F93CF93DF93EC01E5
:101370006A017B012115310579F4E881F981019039
:10138000F081E02D642FDF91CF911F910F91FF909D
:10139000EF90DF90CF9009942A303105E9F477FF80
:1013A0001AC06DE20E9439098C0144275527BA0101
:1013B0004C195D096E097F092AE0CE010E94560989
:1013C000800F911FDF91CF911F910F91FF90EF90B0
:1013D000DF90CF9008952AE0B701A601CE01DF91FA
:1013E000CF911F910F91FF90EF90DF90CF900C94D1
:1013F00056090F931F93CF93DF93EC010E94AF091F
:101400008C01CE010E944009800F911FDF91CF9186
:101410001F910F9108954F925F926F927F928F92DA
:101420009F92AF92BF92CF92DF92EF92FF920F9373
:101430001F93CF93DF93EC016A017B01B22E9A01D7
:10144000AB01C701B6010E94560D882319F06AE569
:1014500071E027C026013701E89477F82FEF3FEFBE
:101460004FE75FE7C301B2010E94560D81110DC025
:101470002FEF3FEF4FE75FE7C301B2010E945E0B22
:1014800018161CF46EE571E00CC02FEF3FEF4FE72C
:101490005FE4C701B6010E94AD0C1816ACF462E619
:1014A00071E0CE01DF91CF911F910F91FF90EF90EE
:1014B000DF90CF90BF90AF909F908F907F906F9074
:1014C0005F904F900C9421092FEF3FEF4FE75FECB7
:1014D000C701B6010E945E0B87FDE1CF20E030E03E
:1014E000A901C701B6010E945E0B87FF0AC06DE229
:1014F000CE010E9439098C01F7FAF094F7F8F094C4
:1015000002C000E010E0A12C60E070E080E09FE30A
:10151000AB1441F020E030E040E251E40E94620B65
:10152000A394F6CF9B01AC01C701B6010E94FA0A51
:101530006B017C010E94CF0B2B013C010E94FB0B35
:101540009B01AC01C701B6010E94F90A6B017C0145
:101550002AE0B301A201CE010E945609080F191F0B
:10156000BB2039F066E671E0CE010E942109080F28
:10157000191F7B2C772041F120E030E040E251E45C
:10158000C701B6010E94B10C6B017C010E94CA0B1D
:101590004B01AA2497FCA094BA2C2AE030E0B501B4
:1015A000A401CE010E94AF09080F191FC501B401A3
:1015B0000E94FD0B9B01AC01C701B6010E94F90A14
:1015C0006B017C017A94D6CFC801DF91CF911F9136
:1015D0000F91FF90EF90DF90CF90BF90AF909F90D2
:1015E0008F907F906F905F904F9008950C940B0AAE
:1015F00008955058BB27AA270ED075C166D130F088
:101600006BD120F031F49F3F11F41EF45BC10EF456
:10161000E095E7FB51C1E92F77D180F3BA17620754
:1016200073078407950718F071F49EF58FC10EF4C7
:10163000E0950B2EBA2FA02D0B01B90190010C01E2
:10164000CA01A0011124FF27591B99F0593F50F4FA
:10165000503E68F11A16F040A22F232F342F442752
:10166000585FF3CF469537952795A795F04053954A
:10167000C9F77EF41F16BA0B620B730B840BBAF01A
:101680009150A1F0FF0FBB1F661F771F881FC2F785
:101690000EC0BA0F621F731F841F48F48795779599
:1016A0006795B795F7959E3F08F0B3CF9395880F50
:1016B00008F09927EE0F979587950895D9D008F4EB
:1016C00081E008950CD00FC107D140F0FED030F07A
:1016D00021F45F3F19F0F0C0511139C1F3C014D1AA
:1016E00098F39923C9F35523B1F3951B550BBB27E9
:1016F000AA2762177307840738F09F5F5F4F220F96
:10170000331F441FAA1FA9F333D00E2E3AF0E0E88E
:1017100030D091505040E695001CCAF729D0FE2FDA
:1017200027D0660F771F881FBB1F2617370748076C
:10173000AB07B0E809F0BB0B802DBF01FF27935822
:101740005F4F2AF09E3F510568F0B6C000C15F3F71
:10175000ECF3983EDCF3869577956795B795F7950A
:101760009F5FC9F7880F911D9695879597F9089502
:10177000E1E0660F771F881FBB1F6217730784079E
:10178000BA0720F0621B730B840BBA0BEE1F88F7AD
:10179000E095089504D06894B111D9C00895BCD0E3
:1017A00088F09F5790F0B92F9927B751A0F0D1F04A
:1017B000660F771F881F991F1AF0BA95C9F712C0D4
:1017C000B13081F0C3D0B1E00895C0C0672F782F49
:1017D0008827B85F39F0B93FCCF386957795679540
:1017E000B395D9F73EF490958095709561957F4FAC
:1017F0008F4F9F4F0895E89409C097FB3EF4909552
:101800008095709561957F4F8F4F9F4F9923A9F0D9
:10181000F92F96E9BB279395F69587957795679568
:10182000B795F111F8CFFAF4BB0F11F460FF1BC0AC
:101830006F5F7F4F8F4F9F4F16C0882311F096E93F
:1018400011C0772321F09EE8872F762F05C06623ED
:1018500071F096E8862F70E060E02AF09A95660FA6
:10186000771F881FDAF7880F9695879597F908955F
:10187000990F0008550FAA0BE0E8FEEF16161706A1
:10188000E807F907C0F012161306E407F50798F009
:10189000621B730B840B950B39F40A2661F0232B22
:1018A000242B252B21F408950A2609F4A140A6959E
:1018B0008FEF811D811D089597F99F6780E870E083
:1018C00060E008959FEF80EC089500240A941616B6
:1018D000170618060906089500240A94121613061E
:1018E000140605060895092E0394000C11F48823AC
:1018F00052F0BB0F40F4BF2B11F460FF04C06F5FC8
:101900007F4F8F4F9F4F089557FD9058440F551F9D
:1019100059F05F3F71F04795880F97FB991F61F071
:101920009F3F79F087950895121613061406551FE8
:10193000F2CF4695F1DF08C0161617061806991F54
:10194000F1CF86957105610508940895E894BB2749
:1019500066277727CB0197F908958ADF08F48FEF80
:1019600008950BD0C0CFB1DF28F0B6DF18F0952373
:1019700009F0A2CFA7CF1124EACFC6DFA0F3959F2D
:10198000D1F3950F50E0551F629FF001729FBB2766
:10199000F00DB11D639FAA27F00DB11DAA1F649F12
:1019A0006627B00DA11D661F829F2227B00DA11DC5
:1019B000621F739FB00DA11D621F839FA00D611D4B
:1019C000221F749F3327A00D611D231F849F600D6C
:1019D000211D822F762F6A2F11249F5750408AF0A5
:1019E000E1F088234AF0EE0FFF1FBB1F661F771F31
:1019F000881F91505040A9F79E3F510570F05CCF71
:101A0000A6CF5F3FECF3983EDCF38695779567951C
:101A1000B795F795E7959F5FC1F7FE2B880F911D4E
:101A20009695879597F9089511F40EF44BCF42C01F
:101A300073DFD0F39923D9F3CEF39F57550B87FF6C
:101A400047D00024A0E640EA90018058569597952B
:101A500028F4805C660F771F881F20F02617370751
:101A6000480730F4621B730B840B202931294A2B61
:101A7000A69517940794202531254A2758F7660F15
:101A8000771F881F20F026173707480730F4620BAE
:101A9000730B840B200D311D411DA09581F7B901F9
:101AA000842F9158880F969587950895E1DE880BCD
:101AB000990B08959F3F31F0915020F487957795C9
:101AC0006795B795880F911D9695879597F9089515
:101AD00091505040660F771F881FD2F70895A1E2FA
:101AE0001A2EAA1BBB1BFD010DC0AA1FBB1FEE1F98
:101AF000FF1FA217B307E407F50720F0A21BB30BE3
:101B0000E40BF50B661F771F881F991F1A9469F75E
:101B100060957095809590959B01AC01BD01CF01BA
:101B20000895EE0FFF1F0590F491E02D0994F894AD
:021B3000FFCFE5
:101B32009600E803000001506F776572200057207D
:101B42000920566F6C74200057200920005600456A
:101B52006E6572677920006B5768200920006B5709
:101B62006820090043757272656E7420004100009E
:101B72000000005D05F908000000007D07F908FF7C
:101B82000618070A075B070D0A006E616E00696E90
:081B920066006F7666002E006C
:00000001FF
