:100000000C9435000C945D000C945D000C945D0024
:100010000C945D000C945D000C945D000C945D00EC
:100020000C945D000C945D000C945D000C945D00DC
:100030000C945D000C945D000C945D000C945D00CC
:100040000C941C010C945D000C944E030C948003E2
:100050000C945D000C945D000C945D000C945D00AC
:100060000C945D000C945D00B00311241FBECFEF13
:10007000D8E0DEBFCDBF11E0A0E0B1E0E2E2F1E107
:1000800002C005900D92AC33B107D9F721E0ACE383
:10009000B1E001C01D92AA3EB207E1F710E0CAE646
:1000A000D0E004C02297FE010E948B08C836D10719
:1000B000C9F70E94F4030C948F080C94000026E00A
:1000C00040E855E260E070E08DE491E00C94EC02D1
:1000D000CF93DF93C6E9D0E0809100010E94EC014C
:1000E000BC01882777FD8095982F0E94F5069B011B
:1000F000AC01609140017091410180914201909169
:1001000043010E94F2056093400170934101809386
:1001100042019093430162E070E080E090E00E9431
:1001200089012197C9F620E030E046E153E460916F
:1001300040017091410180914201909143010E94E0
:100140005A0660934001709341018093420190935D
:10015000430126EF38E24CE950E40E94A90720E071
:1001600030E04AE754E40E945A0620E030E040E2E2
:1001700050E40E94F1059B01AC010E94A9070E9476
:10018000100820E030E04AE754E40E94A90720E08C
:1001900030E044E852E40E945A0660933C017093B8
:1001A0003D0180933E0190933F0163E071E08DE457
:1001B00091E00E94410440914001509141016091C1
:1001C00042017091430122E030E08DE491E00E9411
:1001D000EE056AE071E08DE491E00E9441044091F7
:1001E0003C0150913D0160913E0170913F0122E040
:1001F00030E08DE491E00E94EE0567E171E08DE46E
:1002000091E00E944E0468E572E080E090E00E9478
:100210008901109240011092410110924201109206
:10022000430110923C0110923D0110923E01109248
:100230003F01DF91CF9108951F920F920FB60F9259
:1002400011242F933F938F939F93AF93BF938091EC
:10025000450190914601A0914701B091480130912C
:10026000440123E0230F2D3720F40196A11DB11D79
:1002700005C026E8230F0296A11DB11D209344015D
:100280008093450190934601A0934701B0934801A4
:100290008091490190914A01A0914B01B0914C018C
:1002A0000196A11DB11D8093490190934A01A0932D
:1002B0004B01B0934C01BF91AF919F918F913F91B2
:1002C0002F910F900FBE0F901F9018953FB7F89485
:1002D0008091490190914A01A0914B01B0914C014C
:1002E00026B5A89B05C02F3F19F00196A11DB11D91
:1002F0003FBF6627782F892F9A2F620F711D811DAE
:10030000911D42E0660F771F881F991F4A95D1F70C
:100310000895CF92DF92EF92FF92CF93DF936B011C
:100320007C010E946601EB01C114D104E104F104D7
:1003300089F00E94F0050E9466016C1B7D0B683EEF
:10034000734090F381E0C81AD108E108F108C85160
:10035000DC4FEACFDF91CF91FF90EF90DF90CF900D
:100360000895789484B5826084BD84B5816084BD2D
:1003700085B5826085BD85B5816085BDEEE6F0E01E
:10038000808181608083E1E8F0E01082808182607A
:100390008083808181608083E0E8F0E080818160FB
:1003A0008083E1EBF0E0808184608083E0EBF0E02B
:1003B000808181608083EAE7F0E0808184608083CF
:1003C0008081826080838081816080838081806879
:1003D00080831092C10008958E3008F08E5087708F
:1003E0002091020190E4299F90011124822B809397
:1003F0007C0080917A00806480937A0080917A00FA
:1004000086FDFCCF809178002091790090E0922BBE
:100410000895FC01818D228D90E0805C9F4F821BAE
:1004200091098F7399270895FC01918D828D9817FA
:1004300031F0828DE80FF11D858D90E008958FEFEA
:100440009FEF0895FC01918D828D981761F0828D48
:10045000DF01A80FB11D5D968C91928D9F5F9F73F8
:10046000928F90E008958FEF9FEF089586EA93E0D2
:10047000892B49F080E090E0892B29F00E94A603A7
:1004800081110C9400000895FC01848DDF01A80FF8
:10049000B11DA35ABF4F2C91848D90E001968F73AC
:1004A0009927848FA689B7892C93A089B1898C91CB
:1004B00080648C93938D848D981306C00288F38991
:1004C000E02D80818F7D80830895CF93DF93EC01B1
:1004D000888D8823C9F0EA89FB89808185FD05C064
:1004E000A889B9898C9186FD0FC00FB607FCF5CF9E
:1004F000808185FFF2CFA889B9898C9185FFEDCFE6
:10050000CE010E944402E7CFDF91CF910895CF92B0
:10051000DF92FF920F931F93CF93DF931F92CDB77C
:10052000DEB76C0181E0D60158968C9358975B96A4
:100530009C915B975C968C915C97981307C0509642
:10054000ED91FC915197808185FD2EC0F601038DC0
:1005500010E00F5F1F4F0F731127F02EF601848DEF
:10056000F81211C00FB607FCF9CFD6015096ED91E5
:10057000FC915197808185FFF1CFC60169830E946C
:1005800044026981EBCF838DE80FF11DE35AFF4FE1
:100590006083D6015B960C935B975296ED91FC912C
:1005A0005397808180620CC0D6015696ED91FC91E4
:1005B000579760835096ED91FC91519780818064AC
:1005C000808381E090E00F90DF91CF911F910F9198
:1005D000FF90DF90CF900895BF92CF92DF92EF927D
:1005E000FF92CF93DF93EC016A017B01B22EE88981
:1005F000F98982E08083411581EE58076105710514
:10060000A1F060E079E08DE390E0A70196010E94FF
:100610006708215031094109510956954795379589
:100620002795211580E1380798F0E889F98910822B
:1006300060E874E88EE190E0A70196010E946708E7
:10064000215031094109510956954795379527950C
:10065000EC85FD853083EE85FF852083188EEC893F
:10066000FD89B082EA89FB89808180618083EA8983
:10067000FB89808188608083EA89FB89808180682A
:100680008083EA89FB8980818F7D8083DF91CF9190
:10069000FF90EF90DF90CF90BF9008951F920F9240
:1006A0000FB60F9211242F938F939F93EF93FF9385
:1006B000E0915D01F0915E018081E0916301F09134
:1006C000640182FD12C09081809166018F5F8F73FB
:1006D00020916701821751F0E0916601F0E0E35B41
:1006E000FE4F958F8093660101C08081FF91EF914D
:1006F0009F918F912F910F900FBE0F901F90189583
:100700001F920F920FB60F9211242F933F934F9386
:100710005F936F937F938F939F93AF93BF93EF9369
:10072000FF938DE491E00E944402FF91EF91BF910D
:10073000AF919F918F917F916F915F914F913F9179
:100740002F910F900FBE0F901F9018958DE491E0A0
:100750000E94090221E0892B09F420E0822F0895EC
:100760001092500110924F0188EE93E0A0E0B0E0AB
:100770008093510190935201A0935301B09354017F
:100780008EE191E090934E0180934D0185EC90E0D5
:1007900090935A018093590184EC90E090935C010E
:1007A00080935B0180EC90E090935E0180935D010B
:1007B00081EC90E09093600180935F0182EC90E087
:1007C000909362018093610186EC90E090936401C4
:1007D0008093630110926601109267011092680184
:1007E00010926901089508950E94B1010E94F303D7
:1007F0000E945F00C6E3D2E00E9468002097E1F308
:100800000E943602F9CFCF92DF92EF92FF920F93C0
:100810001F93CF93DF936C017A01EB01E60EF71E75
:1008200000E010E0CE15DF0561F06991D601ED9191
:10083000FC910190F081E02DC6010995080F191F68
:10084000F1CFC801DF91CF911F910F91FF90EF90F1
:10085000DF90CF9008956115710581F0DB010D9057
:100860000020E9F7AD0141505109461B570BDC014F
:10087000ED91FC910280F381E02D099480E090E0FD
:1008800008950C942B04DC01ED91FC910190F08112
:10089000E02D09946AE271E00C942B040F931F93EE
:1008A000CF93DF93EC010E942B048C01CE010E94B8
:1008B0004A04800F911FDF91CF911F910F910895EE
:1008C0008F929F92AF92BF92CF92DF92EF92FF9260
:1008D0000F931F93CF93DF93CDB7DEB7A1970FB6DA
:1008E000F894DEBF0FBECDBF7C01C42EE52FCB0137
:1008F000D22E19A221E02D1510F02AE0D22E8E0161
:100900000F5D1F4F8D2C912CA12CB12C6C2D7E2FA7
:10091000A50194010E9467088C2DD29E8019112494
:10092000015011098A3014F4805D01C0895CF8011E
:100930008083211531054105510521F0C22EE32F99
:10094000CA01E4CFB801C7010E942B04A1960FB6DB
:10095000F894DEBF0FBECDBFDF91CF911F910F91F5
:10096000FF90EF90DF90CF90BF90AF909F908F90CF
:100970000895CF92DF92EF92FF920F931F93CF9340
:10098000DF93EC016A017B012115310579F4E881DF
:10099000F9810190F081E02D642FDF91CF911F91BB
:1009A0000F91FF90EF90DF90CF9009942A3031059E
:1009B000E9F477FF1AC06DE20E9443048C014427DA
:1009C0005527BA014C195D096E097F092AE0CE014D
:1009D0000E946004800F911FDF91CF911F910F91B2
:1009E000FF90EF90DF90CF9008952AE0B701A60125
:1009F000CE01DF91CF911F910F91FF90EF90DF908B
:100A0000CF900C9460044F925F926F927F928F927E
:100A10009F92AF92BF92CF92DF92EF92FF920F938D
:100A20001F93CF93DF93EC016A017B01B22E9A01F1
:100A3000AB01C701B6010E944E08882319F06DE290
:100A400071E027C026013701E89477F82FEF3FEFD8
:100A50004FE75FE7C301B2010E944E0881110DC04C
:100A60002FEF3FEF4FE75FE7C301B2010E94560649
:100A700018161CF461E371E00CC02FEF3FEF4FE755
:100A80005FE4C701B6010E94A5071816ACF465E340
:100A900071E0CE01DF91CF911F910F91FF90EF9008
:100AA000DF90CF90BF90AF909F908F907F906F908E
:100AB0005F904F900C942B042FEF3FEF4FE75FECCC
:100AC000C701B6010E94560687FDE1CF20E030E065
:100AD000A901C701B6010E94560687FF0AC06DE250
:100AE000CE010E9443048C01F7FAF094F7F8F094D9
:100AF00002C000E010E0A12C60E070E080E09FE325
:100B0000AB1441F020E030E040E251E40E945A068C
:100B1000A394F6CF9B01AC01C701B6010E94F20578
:100B20006B017C010E94C7062B013C010E94F30669
:100B30009B01AC01C701B6010E94F1056B017C016C
:100B40002AE0B301A201CE010E946004080F191F20
:100B5000BB2039F069E371E0CE010E942B04080F3D
:100B6000191F7B2C772041F120E030E040E251E476
:100B7000C701B6010E94A9076B017C010E94C20651
:100B80004B01AA2497FCA094BA2C2AE030E0B501CE
:100B9000A401CE010E94B904080F191FC501B401B8
:100BA0000E94F5069B01AC01C701B6010E94F10548
:100BB0006B017C017A94D6CFC801DF91CF911F9150
:100BC0000F91FF90EF90DF90CF90BF90AF909F90EC
:100BD0008F907F906F905F904F9008950C940305D5
:100BE00008955058BB27AA270ED075C166D130F0A2
:100BF0006BD120F031F49F3F11F41EF45BC10EF471
:100C0000E095E7FB51C1E92F77D180F3BA1762076E
:100C100073078407950718F071F49EF58FC10EF4E1
:100C2000E0950B2EBA2FA02D0B01B90190010C01FC
:100C3000CA01A0011124FF27591B99F0593F50F414
:100C4000503E68F11A16F040A22F232F342F44276C
:100C5000585FF3CF469537952795A795F040539564
:100C6000C9F77EF41F16BA0B620B730B840BBAF034
:100C70009150A1F0FF0FBB1F661F771F881FC2F79F
:100C80000EC0BA0F621F731F841F48F487957795B3
:100C90006795B795F7959E3F08F0B3CF9395880F6A
:100CA00008F09927EE0F979587950895D9D008F405
:100CB00081E008950CD00FC107D140F0FED030F094
:100CC00021F45F3F19F0F0C0511139C1F3C014D1C4
:100CD00098F39923C9F35523B1F3951B550BBB2703
:100CE000AA2762177307840738F09F5F5F4F220FB0
:100CF000331F441FAA1FA9F333D00E2E3AF0E0E8A9
:100D000030D091505040E695001CCAF729D0FE2FF4
:100D100027D0660F771F881FBB1F26173707480786
:100D2000AB07B0E809F0BB0B802DBF01FF2793583C
:100D30005F4F2AF09E3F510568F0B6C000C15F3F8B
:100D4000ECF3983EDCF3869577956795B795F79524
:100D50009F5FC9F7880F911D9695879597F908951C
:100D6000E1E0660F771F881FBB1F621773078407B8
:100D7000BA0720F0621B730B840BBA0BEE1F88F7C7
:100D8000E095089504D06894B111D9C00895BCD0FD
:100D900088F09F5790F0B92F9927B751A0F0D1F064
:100DA000660F771F881F991F1AF0BA95C9F712C0EE
:100DB000B13081F0C3D0B1E00895C0C0672F782F63
:100DC0008827B85F39F0B93FCCF38695779567955A
:100DD000B395D9F73EF490958095709561957F4FC6
:100DE0008F4F9F4F0895E89409C097FB3EF490956C
:100DF0008095709561957F4F8F4F9F4F9923A9F0F4
:100E0000F92F96E9BB279395F69587957795679582
:100E1000B795F111F8CFFAF4BB0F11F460FF1BC0C6
:100E20006F5F7F4F8F4F9F4F16C0882311F096E959
:100E300011C0772321F09EE8872F762F05C0662307
:100E400071F096E8862F70E060E02AF09A95660FC0
:100E5000771F881FDAF7880F9695879597F9089579
:100E6000990F0008550FAA0BE0E8FEEF16161706BB
:100E7000E807F907C0F012161306E407F50798F023
:100E8000621B730B840B950B39F40A2661F0232B3C
:100E9000242B252B21F408950A2609F4A140A695B8
:100EA0008FEF811D811D089597F99F6780E870E09D
:100EB00060E008959FEF80EC089500240A941616D0
:100EC000170618060906089500240A941216130638
:100ED000140605060895092E0394000C11F48823C6
:100EE00052F0BB0F40F4BF2B11F460FF04C06F5FE2
:100EF0007F4F8F4F9F4F089557FD9058440F551FB8
:100F000059F05F3F71F04795880F97FB991F61F08B
:100F10009F3F79F087950895121613061406551F02
:100F2000F2CF4695F1DF08C0161617061806991F6E
:100F3000F1CF86957105610508940895E894BB2763
:100F400066277727CB0197F908958ADF08F48FEF9A
:100F500008950BD0C0CFB1DF28F0B6DF18F095238D
:100F600009F0A2CFA7CF1124EACFC6DFA0F3959F47
:100F7000D1F3950F50E0551F629FF001729FBB2780
:100F8000F00DB11D639FAA27F00DB11DAA1F649F2C
:100F90006627B00DA11D661F829F2227B00DA11DDF
:100FA000621F739FB00DA11D621F839FA00D611D65
:100FB000221F749F3327A00D611D231F849F600D86
:100FC000211D822F762F6A2F11249F5750408AF0BF
:100FD000E1F088234AF0EE0FFF1FBB1F661F771F4B
:100FE000881F91505040A9F79E3F510570F05CCF8B
:100FF000A6CF5F3FECF3983EDCF386957795679537
:10100000B795F795E7959F5FC1F7FE2B880F911D68
:101010009695879597F9089511F40EF44BCF42C039
:1010200073DFD0F39923D9F3CEF39F57550B87FF86
:1010300047D00024A0E640EA900180585695979545
:1010400028F4805C660F771F881F20F0261737076B
:10105000480730F4621B730B840B202931294A2B7B
:10106000A69517940794202531254A2758F7660F2F
:10107000771F881F20F026173707480730F4620BC8
:10108000730B840B200D311D411DA09581F7B90113
:10109000842F9158880F969587950895E1DE880BE7
:1010A000990B08959F3F31F0915020F487957795E3
:1010B0006795B795880F911D9695879597F908952F
:1010C00091505040660F771F881FD2F70895A1E214
:1010D0001A2EAA1BBB1BFD010DC0AA1FBB1FEE1FB2
:1010E000FF1FA217B307E407F50720F0A21BB30BFD
:1010F000E40BF50B661F771F881F991F1A9469F779
:1011000060957095809590959B01AC01BD01CF01D4
:101110000895EE0FFF1F0590F491E02D0994F894C7
:02112000FFCFFF
:101122000E0001414443203D2000092043757272A4
:10113200656E74203D2000204100000000008702FF
:10114200030409022202140265020D0A006E616E96
:0C11520000696E66006F7666002E0000DB
:00000001FF
