:100000000C9435000C945D000C945D000C945D0024
:100010000C945D000C945D000C945D000C945D00EC
:100020000C945D000C945D000C945D000C945D00DC
:100030000C945D000C945D000C945D000C945D00CC
:100040000C9496000C945D000C94C8020C94FA0277
:100050000C945D000C945D000C945D000C945D00AC
:100060000C945D000C945D002A0311241FBECFEF99
:10007000D8E0DEBFCDBF11E0A0E0B1E0E8EAF9E0F2
:1000800002C005900D92A432B107D9F721E0A4E295
:10009000B1E001C01D92AA3CB207E1F710E0CAE648
:1000A000D0E004C02297FE010E94CE04C836D107DA
:1000B000C9F70E946E030C94D2040C94000026E051
:1000C00040E855E260E070E08DE291E00C94660259
:1000D000CF93DF93809100010E946601EC014AE01A
:1000E00050E0BC018DE291E00E9469046AEF70E08B
:1000F00080E090E00E940301CE016FEF73E00E9468
:10010000820425E0269FC001279F900D11244AE01C
:1001100050E0BC018DE291E00E9469046AEF70E05A
:1001200080E090E0DF91CF910C9403011F920F9239
:100130000FB60F9211242F933F938F939F93AF93FA
:10014000BF938091250190912601A0912701B09144
:1001500028013091240123E0230F2D3720F401964C
:10016000A11DB11D05C026E8230F0296A11DB11DDA
:10017000209324018093250190932601A0932701C9
:10018000B09328018091290190912A01A0912B011F
:10019000B0912C010196A11DB11D8093290190936E
:1001A0002A01A0932B01B0932C01BF91AF919F9195
:1001B0008F913F912F910F900FBE0F901F90189528
:1001C0003FB7F8948091290190912A01A0912B01C9
:1001D000B0912C0126B5A89B05C02F3F19F00196C0
:1001E000A11DB11D3FBF6627782F892F9A2F620F5F
:1001F000711D811D911D42E0660F771F881F991F99
:100200004A95D1F70895CF92DF92EF92FF92CF9364
:10021000DF936B017C010E94E000EB01C114D1046B
:10022000E104F10489F00E9481040E94E0006C1B4B
:100230007D0B683E734090F381E0C81AD108E10855
:10024000F108C851DC4FEACFDF91CF91FF90EF90DA
:10025000DF90CF900895789484B5826084BD84B592
:10026000816084BD85B5826085BD85B5816085BDB1
:10027000EEE6F0E0808181608083E1E8F0E01082CA
:10028000808182608083808181608083E0E8F0E00B
:10029000808181608083E1EBF0E0808184608083F5
:1002A000E0EBF0E0808181608083EAE7F0E080812C
:1002B000846080838081826080838081816080838C
:1002C0008081806880831092C10008958E3008F08C
:1002D0008E5087702091020190E4299F9001112493
:1002E000822B80937C0080917A00806480937A00D6
:1002F00080917A0086FDFCCF809178002091790072
:1003000090E0922B0895FC01818D228D90E0805C1D
:100310009F4F821B91098F7399270895FC01918D3E
:10032000828D981731F0828DE80FF11D858D90E058
:1003300008958FEF9FEF0895FC01918D828D98179E
:1003400061F0828DDF01A80FB11D5D968C91928DB9
:100350009F5F9F73928F90E008958FEF9FEF0895B6
:1003600080E293E0892B49F080E090E0892B29F02E
:100370000E94200381110C9400000895FC01848DDB
:10038000DF01A80FB11DA35ABF4F2C91848D90E0BF
:1003900001968F739927848FA689B7892C93A0899A
:1003A000B1898C9180648C93938D848D981306C051
:1003B0000288F389E02D80818F7D80830895CF931B
:1003C000DF93EC01888D8823C9F0EA89FB8980815D
:1003D00085FD05C0A889B9898C9186FD0FC00FB62F
:1003E00007FCF5CF808185FFF2CFA889B9898C9170
:1003F00085FFEDCFCE010E94BE01E7CFDF91CF9107
:100400000895CF92DF92FF920F931F93CF93DF93C4
:100410001F92CDB7DEB76C0181E0D60158968C9360
:1004200058975B969C915B975C968C915C97981320
:1004300007C05096ED91FC915197808185FD2EC0AB
:10044000F601038D10E00F5F1F4F0F731127F02E81
:10045000F601848DF81211C00FB607FCF9CFD60152
:100460005096ED91FC915197808185FFF1CFC601A7
:1004700069830E94BE016981EBCF838DE80FF11D76
:10048000E35AFF4F6083D6015B960C935B975296BD
:10049000ED91FC915397808180620CC0D6015696F5
:1004A000ED91FC91579760835096ED91FC91519797
:1004B00080818064808381E090E00F90DF91CF9114
:1004C0001F910F91FF90DF90CF900895BF92CF9230
:1004D000DF92EF92FF92CF93DF93EC016A017B01F1
:1004E000B22EE889F98982E08083411581EE5807B0
:1004F00061057105A1F060E079E08DE390E0A7016E
:1005000096010E94960421503109410951095695DE
:10051000479537952795211580E1380798F0E889A8
:10052000F989108260E874E88EE190E0A7019601F5
:100530000E94960421503109410951095695479569
:1005400037952795EC85FD853083EE85FF852083E3
:10055000188EEC89FD89B082EA89FB8980818061EF
:100560008083EA89FB89808188608083EA89FB89AE
:10057000808180688083EA89FB8980818F7D808388
:10058000DF91CF91FF90EF90DF90CF90BF900895D3
:100590001F920F920FB60F9211242F938F939F9358
:1005A000EF93FF93E0913D01F0913E018081E09156
:1005B0004301F091440182FD12C090818091460177
:1005C0008F5F8F7320914701821751F0E0914601B0
:1005D000F0E0E35DFE4F958F8093460101C080817E
:1005E000FF91EF919F918F912F910F900FBE0F90E0
:1005F0001F9018951F920F920FB60F9211242F93F0
:100600003F934F935F936F937F938F939F93AF939A
:10061000BF93EF93FF938DE291E00E94BE01FF91A3
:10062000EF91BF91AF919F918F917F916F915F916A
:100630004F913F912F910F900FBE0F901F901895E3
:100640008DE291E00E94830121E0892B09F420E0F2
:10065000822F08951092300110922F0188EE93E0BE
:10066000A0E0B0E08093310190933201A093330178
:10067000B093340187E091E090932E0180932D0197
:1006800085EC90E090933A018093390184EC90E0FE
:1006900090933C0180933B0180EC90E090933E016D
:1006A00080933D0181EC90E09093400180933F0165
:1006B00082EC90E0909342018093410186EC90E0BF
:1006C0009093440180934301109246011092470198
:1006D0001092480110924901089508950E942B013B
:1006E0000E946D030E945F00C0EBD1E00E94680091
:1006F0002097E1F30E94B001F9CFCF92DF92EF9201
:10070000FF920F931F93CF93DF936C017A01EB015C
:10071000E60EF71E00E010E0CE15DF0561F06991EE
:10072000D601ED91FC910190F081E02DC601099573
:10073000080F191FF1CFC801DF91CF911F910F91C1
:10074000FF90EF90DF90CF9008956115710581F0D3
:10075000DB010D900020E9F7AD0141505109461B26
:10076000570BDC01ED91FC910280F381E02D09949F
:1007700080E090E00895DC01ED91FC910190F08122
:10078000E02D099463E171E00C94A5038F929F9290
:10079000AF92BF92CF92DF92EF92FF920F931F938F
:1007A000CF93DF93CDB7DEB7A1970FB6F894DEBF36
:1007B0000FBECDBF7C01C42EE52FCB01D22E19A2D6
:1007C00021E02D1510F02AE0D22E8E010F5D1F4F73
:1007D0008D2C912CA12CB12C6C2D7E2FA501940178
:1007E0000E9496048C2DD29E80191124015011096B
:1007F0008A3014F4805D01C0895CF8018083211582
:1008000031054105510521F0C22EE32FCA01E4CF85
:10081000B801C7010E94A503A1960FB6F894DEBFE8
:100820000FBECDBFDF91CF911F910F91FF90EF9041
:10083000DF90CF90BF90AF909F908F900895CF9210
:10084000DF92EF92FF920F931F93CF93DF93EC0110
:100850006A017B012115310579F4E881F981019064
:10086000F081E02D642FDF91CF911F910F91FF90C8
:10087000EF90DF90CF9009942A303105E9F477FFAB
:100880001AC06DE20E94BB038C0144275527BA01B0
:100890004C195D096E097F092AE0CE010E94C6034A
:1008A000800F911FDF91CF911F910F91FF90EF90DB
:1008B000DF90CF9008952AE0B701A601CE01DF9125
:1008C000CF911F910F91FF90EF90DF90CF900C94FC
:1008D000C6030F931F93CF93DF93EC019A01AB01F3
:1008E000662757FD6095762F0E941F048C01CE016C
:1008F0000E94C203800F911FDF91CF911F910F9132
:100900000895089597FB072E16F4009407D077FDFD
:1009100009D00E94B80407FC05D03EF4909581955B
:100920009F4F0895709561957F4F0895A1E21A2E0B
:10093000AA1BBB1BFD010DC0AA1FBB1FEE1FFF1F83
:10094000A217B307E407F50720F0A21BB30BE40BD3
:10095000F50B661F771F881F991F1A9469F760951A
:100960007095809590959B01AC01BD01CF010895D4
:10097000AA1BBB1B51E107C0AA1FBB1FA617B707C5
:1009800010F0A61BB70B881F991F5A95A9F78095E1
:100990009095BC01CD010895EE0FFF1F0590F491D5
:0809A000E02D0994F894FFCF4B
:1009A8000E00010000000001027D0383019C018EFE
:1009B80001DF010D0A006E616E00696E66006F76D8
:0409C80066002E0097
:00000001FF
