:100000000C9453000C947B000C947B000C947B00AC
:100010000C947B000C947B000C947B000C947B0074
:100020000C947B000C947B000C947B000C947B0064
:100030000C947B000C947B000C947B000C947B0054
:100040000C94C8000C947B000C9433030C9465034F
:100050000C947B000C947B000C947B000C947B0034
:100060000C947B000C947B0001020408102040805B
:1000700001020408102001020408102004040404F2
:100080000404040402020202020203030303030342
:1000900000000000250028002B00000000002400C4
:1000A00027002A00950311241FBECFEFD8E0DEBF42
:1000B000CDBF11E0A0E0B1E0EAE6F0E102C00590BA
:1000C0000D92AA32B107D9F721E0AAE2B1E001C04E
:1000D0001D92A03DB207E1F710E0C6EAD0E004C0EF
:1000E0002297FE010E942F08C43AD107C9F70E9447
:1000F000D9030C9433080C94000061E08091000156
:100100000E94B50126E040E855E260E070E083E33C
:1001100091E00C94D102CF93DF93809102010E9471
:100120009801EC014AE050E0BC0183E391E00E94B9
:10013000E60464EF71E080E090E00E943501BE01CA
:10014000882777FD8095982F0E94F00620E030ECFC
:100150004FE754E40E94550620E030E040EA50E4C6
:100160000E94A407AB01BC0122E030E083E391E0F0
:100170000E94E90565E071E083E391E00E943104AB
:1001800064EF71E080E090E0DF91CF910C94350155
:100190001F920F920FB60F9211242F933F938F93BC
:1001A0009F93AF93BF9380912B0190912C01A091CD
:1001B0002D01B0912E0130912A0123E0230F2D371C
:1001C00020F40196A11DB11D05C026E8230F02965B
:1001D000A11DB11D20932A0180932B0190932C0126
:1001E000A0932D01B0932E0180912F0190913001A9
:1001F000A0913101B09132010196A11DB11D8093F2
:100200002F0190933001A0933101B0933201BF913F
:10021000AF919F918F913F912F910F900FBE0F90B3
:100220001F9018953FB7F89480912F01909130015D
:10023000A0913101B091320126B5A89B05C02F3F96
:1002400019F00196A11DB11D3FBF6627782F892F98
:100250009A2F620F711D811D911D42E0660F771F5D
:10026000881F991F4A95D1F70895CF92DF92EF9298
:10027000FF92CF93DF936B017C010E941201EB018F
:10028000C114D104E104F10489F00E94EB050E943D
:1002900012016C1B7D0B683E734090F381E0C81A1D
:1002A000D108E108F108C851DC4FEACFDF91CF91C6
:1002B000FF90EF90DF90CF900895789484B582609E
:1002C00084BD84B5816084BD85B5826085BD85B5FA
:1002D000816085BDEEE6F0E0808181608083E1E8A9
:1002E000F0E01082808182608083808181608083E1
:1002F000E0E8F0E0808181608083E1EBF0E08081E4
:1003000084608083E0EBF0E0808181608083EAE7B5
:10031000F0E080818460808380818260808380813E
:10032000816080838081806880831092C1000895FD
:100330008E3008F08E5087702091040190E4299F40
:1003400090011124822B80937C0080917A0080643C
:1003500080937A0080917A0086FDFCCF80917800AE
:100360002091790090E0922B0895CF93DF9390E055
:10037000FC01E859FF4F2491FC01E458FF4F8491A0
:10038000882349F190E0880F991FFC01E656FF4F42
:10039000A591B49180579F4FFC01C591D4919FB70F
:1003A000611108C0F8948C91209582238C938881E8
:1003B00082230AC0623051F4F8948C91322F309528
:1003C00083238C938881822B888304C0F8948C913A
:1003D000822B8C939FBFDF91CF910895FC01818D7B
:1003E000228D90E0805C9F4F821B91098F7399272B
:1003F0000895FC01918D828D981731F0828DE80F60
:10040000F11D858D90E008958FEF9FEF0895FC0119
:10041000918D828D981761F0828DDF01A80FB11D3B
:100420005D968C91928D9F5F9F73928F90E008955F
:100430008FEF9FEF08958BE893E0892B49F080E0E0
:1004400090E0892B29F00E948B0381110C9400000D
:100450000895FC01848DDF01A80FB11DA35ABF4F81
:100460002C91848D90E001968F739927848FA689B3
:10047000B7892C93A089B1898C9180648C93938DDA
:10048000848D981306C00288F389E02D80818F7DCA
:1004900080830895CF93DF93EC01888D8823C9F082
:1004A000EA89FB89808185FD05C0A889B9898C917D
:1004B00086FD0FC00FB607FCF5CF808185FFF2CF18
:1004C000A889B9898C9185FFEDCFCE010E942902C0
:1004D000E7CFDF91CF910895CF92DF92FF920F93F4
:1004E0001F93CF93DF931F92CDB7DEB76C0181E0EE
:1004F000D60158968C9358975B969C915B975C9627
:100500008C915C97981307C05096ED91FC91519790
:10051000808185FD2EC0F601038D10E00F5F1F4F17
:100520000F731127F02EF601848DF81211C00FB64B
:1005300007FCF9CFD6015096ED91FC91519780813F
:1005400085FFF1CFC60169830E9429026981EBCF43
:10055000838DE80FF11DE35AFF4F6083D6015B9650
:100560000C935B975296ED91FC915397808180623A
:100570000CC0D6015696ED91FC915797608350962A
:10058000ED91FC91519780818064808381E090E0BF
:100590000F90DF91CF911F910F91FF90DF90CF903F
:1005A0000895BF92CF92DF92EF92FF92CF93DF93A5
:1005B000EC016A017B01B22EE889F98982E080832F
:1005C000411581EE580761057105A1F060E079E001
:1005D0008DE390E0A70196010E940B08215031099C
:1005E000410951095695479537952795211580E181
:1005F000380798F0E889F989108260E874E88EE19C
:1006000090E0A70196010E940B0821503109410991
:1006100051095695479537952795EC85FD8530838B
:10062000EE85FF852083188EEC89FD89B082EA89EA
:10063000FB89808180618083EA89FB898081886071
:100640008083EA89FB89808180688083EA89FB89CD
:1006500080818F7D8083DF91CF91FF90EF90DF903D
:10066000CF90BF9008951F920F920FB60F92112452
:100670002F938F939F93EF93FF93E0914301F0911A
:1006800044018081E0914901F0914A0182FD12C04C
:10069000908180914C018F5F8F7320914D01821763
:1006A00051F0E0914C01F0E0ED5CFE4F958F8093AE
:1006B0004C0101C08081FF91EF919F918F912F910B
:1006C0000F900FBE0F901F9018951F920F920FB6AC
:1006D0000F9211242F933F934F935F936F937F93C8
:1006E0008F939F93AF93BF93EF93FF9383E391E037
:1006F0000E942902FF91EF91BF91AF919F918F913D
:100700007F916F915F914F913F912F910F900FBE0D
:100710000F901F90189583E391E00E94EE0121E075
:10072000892B09F420E0822F08951092360110924F
:10073000350188EE93E0A0E0B0E08093370190931C
:100740003801A0933901B0933A018CE091E0909385
:1007500034018093330185EC90E0909340018093C5
:100760003F0184EC90E0909342018093410180EC42
:1007700090E0909344018093430181EC90E090934A
:1007800046018093450182EC90E09093480180936C
:10079000470186EC90E090934A01809349011092C2
:1007A0004C0110924D0110924E0110924F0108958C
:1007B00008950E945D010E94D8030E947D00CBE154
:1007C000D2E00E948B002097E1F30E941B02F9CF38
:1007D000CF92DF92EF92FF920F931F93CF93DF930D
:1007E0006C017A01EB01E60EF71E00E010E0CE1579
:1007F000DF0561F06991D601ED91FC910190F081E6
:10080000E02DC6010995080F191FF1CFC801DF912E
:10081000CF911F910F91FF90EF90DF90CF900895AF
:100820006115710581F0DB010D900020E9F7AD0144
:1008300041505109461B570BDC01ED91FC910280A0
:10084000F381E02D099480E090E00895DC01ED91C2
:10085000FC910190F081E02D099468E171E00C9425
:1008600010040F931F93CF93DF93EC010E941004A9
:100870008C01CE010E942D04800F911FDF91CF913A
:100880001F910F9108958F929F92AF92BF92CF9236
:10089000DF92EF92FF920F931F93CF93DF93CDB729
:1008A000DEB7A1970FB6F894DEBF0FBECDBF7C01B7
:1008B000C42EE52FCB01D22E19A221E02D1510F068
:1008C0002AE0D22E8E010F5D1F4F8D2C912CA12C72
:1008D000B12C6C2D7E2FA50194010E940B088C2D4C
:1008E000D29E80191124015011098A3014F4805DC0
:1008F00001C0895CF801808321153105410551054E
:1009000021F0C22EE32FCA01E4CFB801C7010E9433
:100910001004A1960FB6F894DEBF0FBECDBFDF91D5
:10092000CF911F910F91FF90EF90DF90CF90BF90EC
:10093000AF909F908F900895CF92DF92EF92FF92A9
:100940000F931F93CF93DF93EC016A017B01211575
:10095000310579F4E881F9810190F081E02D642F6F
:10096000DF91CF911F910F91FF90EF90DF90CF908B
:1009700009942A303105E9F477FF1AC06DE20E942C
:1009800026048C0144275527BA014C195D096E09CC
:100990007F092AE0CE010E944304800F911FDF915E
:1009A000CF911F910F91FF90EF90DF90CF9008951E
:1009B0002AE0B701A601CE01DF91CF911F910F91DF
:1009C000FF90EF90DF90CF900C9443040F931F9310
:1009D000CF93DF93EC019A01AB01662757FD609539
:1009E000762F0E949C048C01CE010E942D04800F62
:1009F000911FDF91CF911F910F9108954F925F92B8
:100A00006F927F928F929F92AF92BF92CF92DF921E
:100A1000EF92FF920F931F93CF93DF93EC016A0144
:100A20007B01B22E9A01AB01C701B6010E940708F3
:100A3000882319F06BE171E027C026013701E894A3
:100A400077F82FEF3FEF4FE75FE7C301B2010E9456
:100A5000070881110DC02FEF3FEF4FE75FE7C3019C
:100A6000B2010E94510618161CF46FE171E00CC02F
:100A70002FEF3FEF4FE75FE4C701B6010E94A007E9
:100A80001816ACF463E271E0CE01DF91CF911F91B3
:100A90000F91FF90EF90DF90CF90BF90AF909F901D
:100AA0008F907F906F905F904F900C9410042FEF79
:100AB0003FEF4FE75FECC701B6010E94510687FD8B
:100AC000E1CF20E030E0A901C701B6010E94510644
:100AD00087FF0AC06DE2CE010E9426048C01F7FA5E
:100AE000F094F7F8F09402C000E010E0A12C60E070
:100AF00070E080E09FE3AB1441F020E030E040E2A2
:100B000051E40E945506A394F6CF9B01AC01C701A6
:100B1000B6010E94ED056B017C010E94C2062B010B
:100B20003C010E94EE069B01AC01C701B6010E9488
:100B3000EC056B017C012AE0B301A201CE010E9409
:100B40004304080F191FBB2039F067E271E0CE01A2
:100B50000E941004080F191F7B2C772041F120E020
:100B600030E040E251E4C701B6010E94A4076B01E6
:100B70007C010E94BD064B01AA2497FCA094BA2CCC
:100B80002AE030E0B501A401CE010E949C04080FC8
:100B9000191FC501B4010E94F0069B01AC01C701F9
:100BA000B6010E94EC056B017C017A94D6CFC80196
:100BB000DF91CF911F910F91FF90EF90DF90CF9039
:100BC000BF90AF909F908F907F906F905F904F906D
:100BD00008950C94FE0408955058BB27AA270ED000
:100BE00075C166D130F06BD120F031F49F3F11F424
:100BF0001EF45BC10EF4E095E7FB51C1E92F77D1FC
:100C000080F3BA17620773078407950718F071F429
:100C10009EF58FC10EF4E0950B2EBA2FA02D0B017F
:100C2000B90190010C01CA01A0011124FF27591B31
:100C300099F0593F50F4503E68F11A16F040A22F37
:100C4000232F342F4427585FF3CF469537952795A8
:100C5000A795F0405395C9F77EF41F16BA0B620BA7
:100C6000730B840BBAF09150A1F0FF0FBB1F661FEE
:100C7000771F881FC2F70EC0BA0F621F731F841F31
:100C800048F4879577956795B795F7959E3F08F057
:100C9000B3CF9395880F08F09927EE0F9795879516
:100CA0000895D9D008F481E008950CD00FC107D180
:100CB00040F0FED030F021F45F3F19F0F0C0511148
:100CC00039C1F3C014D198F39923C9F35523B1F373
:100CD000951B550BBB27AA2762177307840738F0AB
:100CE0009F5F5F4F220F331F441FAA1FA9F333D00A
:100CF0000E2E3AF0E0E830D091505040E695001CBE
:100D0000CAF729D0FE2F27D0660F771F881FBB1F79
:100D1000261737074807AB07B0E809F0BB0B802D53
:100D2000BF01FF2793585F4F2AF09E3F510568F09F
:100D3000B6C000C15F3FECF3983EDCF38695779533
:100D40006795B795F7959F5FC9F7880F911D9695A1
:100D5000879597F90895E1E0660F771F881FBB1FFD
:100D6000621773078407BA0720F0621B730B840BAA
:100D7000BA0BEE1F88F7E095089504D06894B1117E
:100D8000D9C00895BCD088F09F5790F0B92F99270B
:100D9000B751A0F0D1F0660F771F881F991F1AF086
:100DA000BA95C9F712C0B13081F0C3D0B1E008954F
:100DB000C0C0672F782F8827B85F39F0B93FCCF3D0
:100DC000869577956795B395D9F73EF4909580957C
:100DD000709561957F4F8F4F9F4F0895E89409C09C
:100DE00097FB3EF490958095709561957F4F8F4F5E
:100DF0009F4F9923A9F0F92F96E9BB279395F69574
:100E0000879577956795B795F111F8CFFAF4BB0FF1
:100E100011F460FF1BC06F5F7F4F8F4F9F4F16C055
:100E2000882311F096E911C0772321F09EE8872FDF
:100E3000762F05C0662371F096E8862F70E060E09B
:100E40002AF09A95660F771F881FDAF7880F969514
:100E5000879597F90895990F0008550FAA0BE0E8B8
:100E6000FEEF16161706E807F907C0F0121613066C
:100E7000E407F50798F0621B730B840B950B39F4AC
:100E80000A2661F0232B242B252B21F408950A2612
:100E900009F4A140A6958FEF811D811D089597F952
:100EA0009F6780E870E060E008959FEF80EC089510
:100EB00000240A9416161706180609060895002439
:100EC0000A9412161306140605060895092E0394B3
:100ED000000C11F4882352F0BB0F40F4BF2B11F427
:100EE00060FF04C06F5F7F4F8F4F9F4F089557FD86
:100EF0009058440F551F59F05F3F71F04795880F88
:100F000097FB991F61F09F3F79F08795089512161E
:100F100013061406551FF2CF4695F1DF08C01616CA
:100F200017061806991FF1CF86957105610508947B
:100F30000895E894BB2766277727CB0197F9089592
:100F40008ADF08F48FEF08950BD0C0CFB1DF28F00F
:100F5000B6DF18F0952309F0A2CFA7CF1124EACF6E
:100F6000C6DFA0F3959FD1F3950F50E0551F629F08
:100F7000F001729FBB27F00DB11D639FAA27F00DF2
:100F8000B11DAA1F649F6627B00DA11D661F829F19
:100F90002227B00DA11D621F739FB00DA11D621FFE
:100FA000839FA00D611D221F749F3327A00D611D1B
:100FB000231F849F600D211D822F762F6A2F1124FD
:100FC0009F5750408AF0E1F088234AF0EE0FFF1F50
:100FD000BB1F661F771F881F91505040A9F79E3F87
:100FE000510570F05CCFA6CF5F3FECF3983EDCF389
:100FF000869577956795B795F795E7959F5FC1F7C4
:10100000FE2B880F911D9695879597F9089523DFFC
:10101000880B990B0895A1E21A2EAA1BBB1BFD0198
:101020000DC0AA1FBB1FEE1FFF1FA217B307E407C7
:10103000F50720F0A21BB30BE40BF50B661F771F1F
:10104000881F991F1A9469F76095709580959095FF
:101050009B01AC01BD01CF010895EE0FFF1F05906C
:0A106000F491E02D0994F894FFCFFD
:10106A000500100001205600000000006C02E80391
:10107A00EE010702F9014A020D0A006E616E00696B
:0A108A006E66006F7666002E00000F
:00000001FF
